:020000040000FA
:100000000128831603130F308500860187013C30D9
:10001000880089014D309F00831203130430920041
:100020000C3097000910950110217D2150212421C9
:100030002208B5005621A7002308B5005621A800C4
:10004000A901013086210918AF28881E8C2842306A
:100050008B2165308B2164308B2131308B21203016
:100060008B21081D40284F308B2146308B21463094
:100070008B2120308B212D308B212D308B21582846
:100080004F308B214E308B2120308B21270835219A
:1000900020308B214C308B2169308B2174308B21A7
:1000A00065308B2172308B212F308B2173308B2167
:1000B000C030862142308B2165308B2164308B210A
:1000C00032308B2120308B21881D73284F308B21BB
:1000D00046308B2146308B2120308B212D308B21D7
:1000E0002D308B218B284F308B214E308B212030AF
:1000F0008B212808352120308B214C308B21693011
:100100008B2174308B2165308B2172308B212F3005
:100110008B2173308B21E728013086214F308B21D2
:1001200078308B2179308B2167308B2165308B21A2
:100130006E308B2120308B2156308B216F308B21FC
:100140006C308B2175308B216D308B2165308B218C
:10015000C03086212408352125083521E7280130C3
:1001600086214F308B2178308B2179308B2167307D
:100170008B2165308B216E308B2120308B214C30D0
:100180008B2165308B2176308B2165308B216C3053
:100190008B2120308B214C308B216F308B2177309D
:1001A0008B21C030862146308B2169308B216C3009
:1001B0008B216C308B2120308B2154308B2161308E
:1001C0008B216E308B216B308B2121308B21081DD0
:1001D000EA28F3282708A900A502031CF028F32821
:1001E000A4036430A507881DF628FF282808A9075E
:1001F000A502031CFC28FF28A4036430A507081EE1
:100200000229032910212908B50062219500053033
:100210002402031C0C290E2909141628091016287B
:100220001930A4000030A5000800B001B101320867
:10023000B4003308B402031C21293308B202B00A07
:1002400017293208B1000800C1309F004B211F154B
:100250001F1928291E08A200C9309F004B211F1515
:100260001F1930291E08A3000800B2006430B30033
:1002700015213008C2003108B2000A30B300152140
:100280003008C1003108C0004108303E8B214008D1
:10029000303E8B210800FA30A000A00B4D29080049
:1002A000FA30A1004B21A10B52290800B50803190F
:1002B00000344030B502031C01344030B502031C49
:1002C00005340A34B508031900340530B502031C9F
:1002D00002340530B502031C06340530B502031C98
:1002E0000B34103488140000000000000000881057
:1002F00000000000000000000800013086213830B6
:1003000086210D30862106308621080008108600DF
:1003100072214B2108000814860072214B2108002D
:02400E0039393E
:00000001FF
